{
  "contractName": "Money",
  "abi": [
    {
      "constant": false,
      "inputs": [
        {
          "name": "amountOfFuckingMoney",
          "type": "uint256"
        }
      ],
      "name": "put",
      "outputs": [],
      "payable": false,
      "stateMutability": "nonpayable",
      "type": "function"
    },
    {
      "constant": true,
      "inputs": [],
      "name": "get",
      "outputs": [
        {
          "name": "",
          "type": "uint256"
        }
      ],
      "payable": false,
      "stateMutability": "view",
      "type": "function"
    },
    {
      "inputs": [
        {
          "name": "initialFuckingMoney",
          "type": "uint256"
        }
      ],
      "payable": false,
      "stateMutability": "nonpayable",
      "type": "constructor"
    }
  ],
  "bytecode": "0x6060604052341561000f57600080fd5b60405160208061011883398101604052808051906020019091905050806000819055505060d7806100416000396000f3006060604052600436106049576000357c0100000000000000000000000000000000000000000000000000000000900463ffffffff1680633f81a2c014604e5780636d4ce63c14606e575b600080fd5b3415605857600080fd5b606c60048080359060200190919050506094565b005b3415607857600080fd5b607e60a2565b6040518082815260200191505060405180910390f35b806000540160008190555050565b600080549050905600a165627a7a72305820b5939a28545d27261929ff821face01c480bf62dc31a3506a48ff1a974b49f300029",
  "source": "pragma solidity ^0.4.17;\n\ncontract Money {\n\n  uint private myFuckingMoney; // how much money this contract has accumulated.\n\n\n\n  function Money(uint initialFuckingMoney) public {\n\n    myFuckingMoney = initialFuckingMoney;\n\n  }\n\n\n\n  function put (uint amountOfFuckingMoney) public {\n\n    myFuckingMoney = myFuckingMoney + amountOfFuckingMoney;\n\n  }\n\n\n\n  function get () public constant returns (uint) {\n\n    return myFuckingMoney;\n\n  }\n\n}\n",
  "sourcePath": "/Users/thekevinscott/crypto/cryptothon/contracts/Money.sol",
  "compiler": {
    "name": "solc",
    "version": "0.4.18+commit.9cf6e910.Emscripten.clang"
  },
  "schemaVersion": "1.0.1",
  "updatedAt": "2017-12-02T19:27:31.664Z"
}