{
  "contractName": "Tontine",
  "abi": [
    {
      "constant": true,
      "inputs": [
        {
          "name": "",
          "type": "address"
        }
      ],
      "name": "members",
      "outputs": [
        {
          "name": "",
          "type": "uint256"
        }
      ],
      "payable": false,
      "stateMutability": "view",
      "type": "function"
    },
    {
      "constant": true,
      "inputs": [],
      "name": "currentMonth",
      "outputs": [
        {
          "name": "",
          "type": "uint256"
        }
      ],
      "payable": false,
      "stateMutability": "view",
      "type": "function"
    },
    {
      "constant": true,
      "inputs": [],
      "name": "entryCapital",
      "outputs": [
        {
          "name": "",
          "type": "uint256"
        }
      ],
      "payable": false,
      "stateMutability": "view",
      "type": "function"
    },
    {
      "constant": false,
      "inputs": [],
      "name": "rollCall",
      "outputs": [
        {
          "name": "",
          "type": "bool"
        }
      ],
      "payable": false,
      "stateMutability": "nonpayable",
      "type": "function"
    },
    {
      "constant": false,
      "inputs": [],
      "name": "invest",
      "outputs": [
        {
          "name": "",
          "type": "bool"
        }
      ],
      "payable": true,
      "stateMutability": "payable",
      "type": "function"
    },
    {
      "inputs": [],
      "payable": false,
      "stateMutability": "nonpayable",
      "type": "constructor"
    }
  ],
  "bytecode": "0x606060405260008055601760015560056002556001600555341561002257600080fd5b61052d806100316000396000f30060606040526004361061006d576000357c0100000000000000000000000000000000000000000000000000000000900463ffffffff16806308ae4b0c14610072578063862a4d47146100bf578063a63da3b2146100e8578063dd7a086314610111578063e8b5e51f1461013e575b600080fd5b341561007d57600080fd5b6100a9600480803573ffffffffffffffffffffffffffffffffffffffff16906020019091905050610160565b6040518082815260200191505060405180910390f35b34156100ca57600080fd5b6100d2610178565b6040518082815260200191505060405180910390f35b34156100f357600080fd5b6100fb61017e565b6040518082815260200191505060405180910390f35b341561011c57600080fd5b61012461018a565b604051808215151515815260200191505060405180910390f35b6101466103cb565b604051808215151515815260200191505060405180910390f35b60066020528060005260406000206000915090505481565b60005481565b6729a2241af62c000081565b6000806000600160055414156101a357600092506103c6565b610e1060055442038115156101b457fe5b04915081600054101561023457600154600080815460010191905081905514156101f1573373ffffffffffffffffffffffffffffffffffffffff16ff5b6003546000546001805401033073ffffffffffffffffffffffffffffffffffffffff163181151561021e57fe5b0481151561022857fe5b04600481905550610249565b6001600054101561024857600092506103c6565b5b600660003373ffffffffffffffffffffffffffffffffffffffff1673ffffffffffffffffffffffffffffffffffffffff16815260200190815260200160002054905060005481141561034c576001600660003373ffffffffffffffffffffffffffffffffffffffff1673ffffffffffffffffffffffffffffffffffffffff168152602001908152602001600020600082825401925050819055503373ffffffffffffffffffffffffffffffffffffffff166108fc6001543073ffffffffffffffffffffffffffffffffffffffff163181151561032157fe5b049081150290604051600060405180830381858888f19350505050151561034757600080fd5b6103c1565b6000548110156103c057600660003373ffffffffffffffffffffffffffffffffffffffff1673ffffffffffffffffffffffffffffffffffffffff1681526020019081526020016000206000905560026000815480929190600190039190505550600360008154809291906001900391905055505b5b600192505b505090565b60006729a2241af62c00008034101515156103e557600080fd5b6000600660003373ffffffffffffffffffffffffffffffffffffffff1673ffffffffffffffffffffffffffffffffffffffff1681526020019081526020016000205411151561043057fe5b600254600360008154809291906001019190505510151561045457600091506104b2565b600254600354141561046857426005819055505b6001600660003373ffffffffffffffffffffffffffffffffffffffff1673ffffffffffffffffffffffffffffffffffffffff16815260200190815260200160002081905550600191505b803411156104fd573373ffffffffffffffffffffffffffffffffffffffff166108fc8234039081150290604051600060405180830381858888f1935050505015156104fc57600080fd5b5b50905600a165627a7a72305820c6fe221e7e60765bc41f434eb755f7a0fbcf43e2afbdec68a6457da897320ede0029",
  "source": "pragma solidity ^0.4.17;\n\ncontract Tontine {\n\n    uint public constant entryCapital = 3 ether;\n    uint public currentMonth = 0;\n    uint private maxMonths = 23;\n    uint private maxMembers = 5;\n    uint private numMembers;\n    uint private payout;\n    uint private t = 1;\n    mapping(address => uint) public members;\n    \n\n    function Tontine() public\n    {\n    }\n    \n    function rollCall() external returns (bool)\n    {\n        // Don't accept roll call until enrollment is over\n        if (t == 1) return false;\n\n        // If the month (hour) has changed, advance and set new payout.\n        // Otherwise, if we're in the enrollment period, return false.\n        uint delta = (block.timestamp - t) / 1 hours;\n        if (currentMonth < delta) {\n            if (++currentMonth == maxMonths) selfdestruct(msg.sender);\n            payout = (this.balance / (maxMonths + 1 - currentMonth)) / numMembers;\n        }\n        else if (currentMonth < 1) return false;\n\n        // You're either dead or getting paid\n        uint mm = members[msg.sender];\n        if (mm == currentMonth) {\n            // You're up-to-date, get paid\n            members[msg.sender] += 1;\n            msg.sender.transfer(this.balance / maxMonths);\n        }\n        else if (mm < currentMonth) {\n            // You died, fuck you!\n            delete members[msg.sender];\n            maxMembers--;\n            numMembers--;\n        }\n        \n        return true;\n    }\n\n\n    // This modifier requires a certain\n    // fee being associated with a function call.\n    // If the caller sent too much, he or she is\n    // refunded, but only after the function body.\n    // This was dangerous before Solidity version 0.4.0,\n    // where it was possible to skip the part after `_;`.\n    modifier costs(uint _amount) \n    {\n        require(msg.value >= _amount);\n\n        _;\n\n        if (msg.value > _amount)\n            msg.sender.transfer(msg.value - _amount);\n    }\n    \n\n    function invest() external payable costs(entryCapital) returns(bool)\n    {\n        // assume only works if enough ether\n\n        // Reject duplicates\n        assert(members[msg.sender] > 0);\n\n        // Determine if enrollment is over, then accept no more investments\n        if (numMembers++ >= maxMembers) return false;\n        if (numMembers == maxMembers) t = block.timestamp;\n      \n        members[msg.sender] = 1;\n        \n        return true;\n    }\n\n}\n",
  "sourcePath": "/Users/thekevinscott/crypto/cryptothon/contracts/Tontine.sol",
  "compiler": {
    "name": "solc",
    "version": "0.4.18+commit.9cf6e910.Emscripten.clang"
  },
  "schemaVersion": "1.0.1",
  "updatedAt": "2017-12-03T20:05:57.652Z"
}